:100000000C9434000C9446000C9446000C9446006A
:100010000C9446000C9446000C9446000C94460048
:100020000C9446000C9446000C9446000C94460038
:100030000C9446000C9446000C945C000C946B00ED
:100040000C9448000C9446000C9446000C94460016
:100050000C9446000C9446000C9446000C94460008
:100060000C9446000C94460011241FBECFEFD8E03C
:10007000DEBFCDBF21E0A0E0B1E001C01D92A23003
:10008000B207E1F70E947A000C94AA000C940000D9
:100090001F920F920FB60F9211248F938FEF85B995
:1000A0008091000187BD8091010188BD8F910F90E3
:1000B0000FBE0F901F9018951F920F920FB60F92C0
:1000C00011248F9385B1807F85B98F910F900FBEDA
:1000D0000F901F9018951F920F920FB60F92112438
:1000E0008F9385B18F7085B98F910F900FBE0F9050
:1000F0001F9018958FEF84B985B5836085BD809179
:100100006E00866080936E0080916E0081608093A7
:100110006E00789480E0EDEEF2E03197F1F700C0E8
:10012000000080930001982F9095909301018F5FBC
:100130008F3F89F78EEFEDEEF2E03197F1F700C0D7
:10014000000080930001982F9095909301018150B9
:0801500091F7E0CFF894FFCF16
:00000001FF
