:100000000C9434000C9449000C9449000C94490061
:100010000C9449000C9449000C9449000C9449003C
:100020000C9449000C9449000C9449000C9449002C
:100030000C9449000C9449000C9449000C9449001C
:100040000C9449000C9449000C9449000C9449000C
:100050000C9449000C9449000C9449000C944900FC
:100060000C9449000C94490011241FBECFEFD8E036
:10007000DEBFCDBF11E0A0E0B1E0ECEDF1E002C0E9
:1000800005900D92A235B107D9F70E946C000C942F
:10009000EC000C940000FC0130E020E080E4261726
:1000A000370780F0089595E09A95F1F700004F5FCB
:1000B0005F4F4E175F07B9F79BB198279BB92E0F7B
:1000C0003F1FEDCF50E040E0F4CF25E02A95F1F757
:1000D00000000197D1F70895CF93DF93CDB7DEB736
:1000E000E6970FB6F894DEBF0FBECDBF569A1092BA
:1000F000C50087E68093C4008091C0008D7F809307
:10010000C00088E18093C10086E08093C20086E34E
:1001100091E00E94D90082E1E0E0F1E0DE019596F5
:1001200001900D928A95E1F784E2E2E1F1E0DE01CF
:10013000119601900D928A95E1F700E018E70E9470
:10014000D200F82E8EE40E94CB00FE01B59690E01E
:1001500080E021912F1111C0880F991FE1E0F0E09C
:10016000EC0FFD1FE80FF91FB801808191810E94FB
:100170004B00E5CF00E010EFE2CF01968231910510
:1001800041F78BE5F816C9F28DE5F81699F3C80129
:100190000E946500D4CF9091C00095FFFCCF809362
:1001A000C60008958091C00087FFFCCF8091C600F3
:1001B00008950F931F93CF938C01C0E0F801EC0FCB
:1001C000F11D8081811104C0CF911F910F9108957D
:0C01D0000E94CB00CF5FF2CFF894FFCF6D
:1001DC00617773656466746779686A696B6F6C7054
:1001EC003B27640333030503DA02B1028A02660279
:1001FC00430223020402E701CC01B2019A018301FC
:10020C006D01590145012D2D2D2D2D205365726940
:10021C00616C204F7267616E202D2D2D2D2D2D0DB3
:02022C000A00C6
:00000001FF
