:100000000C9434000C943E000C943E000C943E0082
:100010000C943E000C943E000C943E000C943E0068
:100020000C943E000C943E000C943E000C943E0058
:100030000C943E000C943E000C943E000C943E0048
:100040000C943E000C943E000C943E000C943E0038
:100050000C943E000C943E000C943E000C943E0028
:100060000C943E000C943E0011241FBECFEFD8E04C
:10007000DEBFCDBF0E9440000C9480000C940000B5
:100080001092C50083E38093C4008091C0008D7FEF
:100090008093C00088E18093C10086E08093C20015
:1000A00080917C00806480937C0080917A008360E2
:1000B00080937A0080917C00806280937C008091A4
:1000C0007A00806880937A0080917A0080628093C1
:1000D0007A0080917A00806480937A008091790020
:1000E0000E94790087E893E10197F1F700C00000D2
:1000F000F5CF9091C00095FFFCCF8093C600089586
:04010000F894FFCFA1
:00000001FF
