:100000000C9434000C943E000C943E000C943E0082
:100010000C943E000C943E000C943E000C943E0068
:100020000C943E000C943E000C943E000C943E0058
:100030000C943E000C943E000C943E000C943E0048
:100040000C943E000C943E000C943E000C943E0038
:100050000C943E000C943E000C943E000C943E0028
:100060000C943E000C943E0011241FBECFEFD4E050
:10007000DEBFCDBF0E9440000C946A000C940000CB
:100080008FEF84B980E041E050E08530A0F0282F68
:1000900030E0CA01022E01C0880F0A94EAF785B940
:1000A00081E093E50197F1F700C00000215031098C
:1000B000822F2111EECF9A01082E01C0220F0A943F
:1000C000EAF725B9E1E0F3E53197F1F700C0000068
:0800D0008F5FDBCFF894FFCF36
:00000001FF
