:100000000C9434000C9449000C9449000C94490061
:100010000C9449000C9449000C9449000C9449003C
:100020000C9449000C9449000C9449000C9449002C
:100030000C9449000C9449000C9449000C9449001C
:100040000C9449000C9449000C9449000C9449000C
:100050000C9449000C9449000C9449000C944900FC
:100060000C9449000C94490011241FBECFEFD8E036
:10007000DEBFCDBF12E0A0E0B1E0E4E9F2E002C0F3
:1000800005900D92A635B107D9F70E944B000C944C
:1000900048010C9400000E94160180918100836049
:1000A000809381008FEF84B95A9A80E091E00E949A
:1000B000350184E191E00E94350186E291E00E94E1
:1000C00035011FEF0E942E0180E491E00E9435016E
:1000D0000E94FF008FE491E00E94350115B9109253
:1000E0008500109284004A990AC087E591E00E9439
:1000F000350115B888E791E00E943501E3CF4A99B0
:10010000FECFC0918400D091850084E0D695C7953C
:100110008A95E1F7CE010E949100CE010E94D400A1
:10012000E8CFCF93DF93EC0186E991E00E9435019F
:1001300080E0C03197E2D90740F5882319F0805D4F
:100140000E94270180E0C83E93E0D90710F5805D4A
:100150000E9427018EE20E94270180E0C436D1056B
:10016000E0F4805D0E94270180E0CA30D105C8F428
:10017000805D0E9427018C2F805D0E94270182EA0A
:1001800091E0DF91CF910C9435018F5FC051D74240
:10019000D0CF8F5FC85ED340D6CF8F5FC456D10912
:1001A000DDCF8F5F2A97E1CF813D27E0920720F0D6
:1001B0008EEA91E00C943501893E23E0920718F015
:1001C0008AED91E0F7CF853F21E0920718F08AEEA3
:1001D00091E0F0CF8B3F910518F089EF91E0EACFE5
:1001E000893C910518F08EE192E0E4CF86399105C3
:1001F00018F084E392E0DECF83E492E0DBCF2FE3DC
:100200008DE093E0215080409040E1F700C0000075
:100210008091840090918500815009F40895E3EC69
:10022000F9E03197F1F700C00000F6CF1092C50059
:100230008CE08093C400E0ECF0E0808182608083F9
:1002400088E18093C10086E08093C2000895909178
:10025000C00095FFFCCF8093C60008958091C00038
:1002600087FFFCCF8091C60008950F931F93CF9313
:100270008C01C0E0F801EC0FF11D8081811104C0F8
:10028000CF911F910F9108950E942701CF5FF2CF68
:04029000F894FFCF10
:100294000D0A5265616374696F6E2054696D6572ED
:1002A4003A0D0A002D2D2D2D2D2D2D2D2D2D2D2DDD
:1002B4002D2D2D0D0A00507265737320616E792007
:1002C4006B657920746F2073746172742E0D0A004B
:1002D4000D0A4765742072656164792E2E2E000D17
:1002E4000A476F210D0A00596F75277265206F6EDA
:1002F4006C79206368656174696E6720796F7572C3
:1003040073656C662E0D0A00507265737320616EFE
:1003140079206B657920746F20747279206167612C
:10032400696E2E0D0A000D0A596F7520746F6F6B7C
:100334002000207365636F6E64732E0D0A002D2DEB
:100344002D2D3E2020556D6D6D2E2E2E74686973F3
:100354002069732061207265616374696F6E207413
:10036400696D65722E2E2E0D0A002D2D2D2D3E2029
:100374002048656C6C6F3F0D0A002D2D2D2D3E20FD
:1003840020536C6F772E0D0A002D2D2D2D3E20202D
:100394004861766520616E6F74686572206375705C
:1003A400206F6620636F666665652E0D0A002D2D2D
:1003B4002D2D3E20205265737065637461626C65F7
:1003C4002E0D0A002D2D2D2D3E2020466173742EF6
:1003D4000D0A002D2D2D2D3E2020416D617A696E70
:0603E40067210D0A000074
:00000001FF
