:100000000C9434000C943E000C943E000C943E0082
:100010000C943E000C943E000C943E000C943E0068
:100020000C943E000C943E000C943E000C943E0058
:100030000C943E000C943E000C943E000C943E0048
:100040000C943E000C943E000C943E000C943E0038
:100050000C943E000C943E000C943E000C943E0028
:100060000C943E000C943E0011241FBECFEFD8E04C
:10007000DEBFCDBF0E9440000C947A000C940000BB
:1000800080917C00806480937C0080917A00846001
:1000900080937A0080917A00806880937A008FEF55
:1000A00084B941E050E080917A00806480937A00C6
:1000B00080917A0086FDFCCF809178009091790044
:1000C000880F892F881F990B919515B890E025B15D
:1000D000BA01092E01C0660F0A94EAF7262B25B94A
:1000E0009F5F8917A0F783ED90E30197F1F700C0B8
:0800F0000000D9CFF894FFCF06
:00000001FF
