:100000000C9434000C9449000C9449000C94490061
:100010000C9449000C9449000C9449000C9449003C
:100020000C9449000C9449000C9449000C9449002C
:100030000C9449000C9449000C9449000C9449001C
:100040000C9449000C9449000C9449000C9449000C
:100050000C9449000C9449000C9449000C944900FC
:100060000C9449000C94490011241FBECFEFD8E036
:10007000DEBFCDBF11E0A0E0B1E0E6E3F1E002C0F9
:1000800005900D92A235B107D9F70E944B000C9450
:1000900099000C940000CF93DF93CDB7DEB7C25523
:1000A000D1090FB6F894DEBF0FBECDBF82E5E0E008
:1000B000F1E0DE01119601900D928A95E1F7569AD2
:1000C0005A9A80E018E24A9918C0811104C01F5F53
:1000D000193209F410E0E12FF0E0EE0FFF1F81E08C
:1000E00090E08C0F9D1FE80FF91F60E476E080819F
:1000F00091810E947F0081E0E6CF80E0E4CFFC01A7
:1001000030E020E080E42617370780F0089595E07E
:100110009A95F1F700004F5F5F4F4E175F07B9F7F1
:100120009BB198279BB92E0F3F1FEDCF50E040E0C9
:06013000F4CFF894FFCFAC
:10013600940094009400BB0094007D00FA00BB007C
:10014600FA002A01DF00C700D200DF00FA0094009F
:100156007D006F008C007D009400BB00A700C700E7
:10016600BB00FA002A01DF00C700D200DF00FA0058
:1001760094007D006F008C007D009400BB00A700FA
:02018600C700B0
:00000001FF
