:100000000C9434000C9449000C9449000C94490061
:100010000C9449000C9449000C9449000C9449003C
:100020000C9449000C9449000C9449000C9449002C
:100030000C9449000C9449000C9449000C9449001C
:100040000C9449000C9449000C9449000C9449000C
:100050000C9449000C9467000C9449000C944900DE
:100060000C9449000C94490011241FBECFEFD8E036
:10007000DEBFCDBF11E0A0E0B1E0EEEAF8E002C0E3
:1000800005900D92A632B107D9F70E944A010C944F
:1000900055040C940000ECE7F0E0808185608083DB
:1000A000808180648083EAE7F0E0808186608083DD
:1000B000808180688083089583B7817F826083BF59
:1000C000EAE7F0E08081886080837894089518954D
:1000D00020E190E080E033B7316033BF889533B7DB
:1000E0003E7F33BF4091780050917900840F951F77
:1000F000215089F7969587959695879508954F9203
:100100005F926F927F928F929F92AF92BF92CF92A7
:10011000DF92EF92FF92CF93DF9300D000D0CDB764
:10012000DEB720E030E048EC52E40E94C4030E94B5
:10013000310420E030E048EC52E40E943D026B01C3
:100140007C0120E030E040E251E40E943D024B019E
:100150005C0120E030E040E452E40E94D1010E94C2
:10016000AF02862F0E949101C501B4010E941B03BA
:100170002B013C0120E030E040E452E4C701B6012D
:100180000E94D1014B015C0120E030E040E251E4EB
:10019000C301B2010E94C4039B01AC01C501B401BB
:1001A0000E94D0010E94AF02862F0E9491018EE230
:1001B0000E94910120E030E040E251E4C701B60125
:1001C0000E94C4034B015C01C701B6010E941B03DE
:1001D0002B013C0120E030E040E452E4C501B401D1
:1001E0000E94D10169837A838B839C8320E030E075
:1001F00040E251E4C301B2010E94C4039B01AC017F
:1002000069817A818B819C810E94D0010E94AF021A
:10021000862F0E949101C501B4010E941B034B016E
:100220005C0120E030E048EC52E4C701B6010E94D6
:10023000C40320E030E040E452E40E94D1016B01AD
:100240007C0120E030E040E251E4C501B4010E94AD
:10025000C4039B01AC01C701B6010E94D0010E94FA
:10026000AF02862F0E94910185E191E00F900F90DF
:100270000F900F90DF91CF91FF90EF90DF90CF9094
:10028000BF90AF909F908F907F906F905F904F90B6
:100290000C9498010E94800180E091E00E949801F6
:1002A00088E191E00E94980180E00E94AB010E94E9
:1002B0004B000E945C000E946800BC0190E080E05E
:1002C0000E94DE0227EC3BE447E450E40E94C403B2
:1002D0002DE232EB41EA50E40E94C40320E030E01A
:1002E00040E859E30E94C4030E947F002FE986E89A
:1002F00091E0215080409040E1F700C00000DBCF4A
:100300001092C5008CE08093C400E0ECF0E08081A6
:100310008260808388E18093C10086E08093C20080
:1003200008959091C00095FFFCCF8093C60008957A
:100330000F931F93CF938C01C0E0F801EC0FF11DD8
:100340008081811104C0CF911F910F9108950E9467
:100350009101CF5FF2CFCF93C82F64E60E94C40112
:10036000805D0E9491012AE08C2F622F0E94C401BF
:10037000C92F0E94C40180E3890F0E94910180E38C
:100380008C0FCF910C949101991B79E004C0991FB7
:10039000961708F0961B881F7A95C9F780950895DF
:1003A0005058BB27AA270E94E8010C9472030E94B0
:1003B000640338F00E946B0320F039F49F3F19F476
:1003C00026F40C9461030EF4E095E7FB0C943203E1
:1003D000E92F0E94830358F3BA1762077307840753
:1003E000950720F079F4A6F50C94BD030EF4E09582
:1003F0000B2EBA2FA02D0B01B90190010C01CA01DF
:10040000A0011124FF27591B99F0593F50F4503E89
:1004100068F11A16F040A22F232F342F4427585F7B
:10042000F3CF469537952795A795F0405395C9F793
:100430007EF41F16BA0B620B730B840BBAF091504B
:10044000A1F0FF0FBB1F661F771F881FC2F70EC0EA
:10045000BA0F621F731F841F48F4879577956795BD
:10046000B795F7959E3F08F0B0CF9395880F08F0A9
:100470009927EE0F9795879508950E9451020C9445
:1004800072030E946B0358F00E94640340F029F449
:100490005F3F29F00C94320351110C94BE030C946D
:1004A00061030E94830368F39923B1F3552391F309
:1004B000951B550BBB27AA2762177307840738F0D3
:1004C0009F5F5F4F220F331F441FAA1FA9F335D030
:1004D0000E2E3AF0E0E832D091505040E695001CE4
:1004E000CAF72BD0FE2F29D0660F771F881FBB1F9E
:1004F000261737074807AB07B0E809F0BB0B802D7C
:10050000BF01FF2793585F4F3AF09E3F510578F0A7
:100510000C9432030C94BE035F3FE4F3983ED4F393
:10052000869577956795B795F7959F5FC9F7880F7B
:10053000911D9695879597F90895E1E0660F771FCD
:10054000881FBB1F621773078407BA0720F0621B5E
:10055000730B840BBA0BEE1F88F7E09508950E9489
:100560008B0388F09F5798F0B92F9927B751B0F0B7
:10057000E1F0660F771F881F991F1AF0BA95C9F727
:1005800014C0B13091F00E94BD03B1E008950C9405
:10059000BD03672F782F8827B85F39F0B93FCCF3B8
:1005A000869577956795B395D9F73EF490958095A4
:1005B000709561957F4F8F4F9F4F0895E89409C0C4
:1005C00097FB3EF490958095709561957F4F8F4F86
:1005D0009F4F9923A9F0F92F96E9BB279395F6959C
:1005E000879577956795B795F111F8CFFAF4BB0F1A
:1005F00011F460FF1BC06F5F7F4F8F4F9F4F16C07E
:10060000882311F096E911C0772321F09EE8872F07
:10061000762F05C0662371F096E8862F70E060E0C3
:100620002AF09A95660F771F881FDAF7880F96953C
:10063000879597F908950E94A50390F09F3748F495
:10064000911116F00C94BE0360E070E080E89FEB1F
:10065000089526F41B16611D711D811D0C9438032D
:100660000C94530397F99F6780E870E060E0089569
:10067000882371F4772321F09850872B762F07C0B9
:10068000662311F499270DC09051862B70E060E02D
:100690002AF09A95660F771F881FDAF7880F9695CC
:1006A000879597F908959F3F31F0915020F48795F1
:1006B00077956795B795880F911D9695879597F9CA
:1006C00008959FEF80EC089500240A9416161706EB
:1006D00018060906089500240A9412161306140633
:1006E00005060895092E0394000C11F4882352F096
:1006F000BB0F40F4BF2B11F460FF04C06F5F7F4F4E
:100700008F4F9F4F089557FD9058440F551F59F034
:100710005F3F71F04795880F97FB991F61F09F3FEE
:1007200079F087950895121613061406551FF2CF17
:100730004695F1DF08C0161617061806991FF1CF67
:10074000869571056105089408950E948B03A0F0B9
:10075000BEE7B91788F4BB279F3860F41616B11DA1
:10076000672F782F8827985FF7CF869577956795BD
:10077000B11D93959639C8F30895E894BB27662771
:100780007727CB0197F908950E94D7030C94720341
:100790000E94640338F00E946B0320F0952311F04F
:1007A0000C9432030C94610311240C94BE030E9438
:1007B000830370F3959FC1F3950F50E0551F629F1F
:1007C000F001729FBB27F00DB11D639FAA27F00DAA
:1007D000B11DAA1F649F6627B00DA11D661F829FD1
:1007E0002227B00DA11D621F739FB00DA11D621FB6
:1007F000839FA00D611D221F749F3327A00D611DD3
:10080000231F849F600D211D822F762F6A2F1124B4
:100810009F5750409AF0F1F088234AF0EE0FFF1FE7
:10082000BB1F661F771F881F91505040A9F79E3F3E
:10083000510580F00C9432030C94BE035F3FE4F347
:10084000983ED4F3869577956795B795F795E79594
:100850009F5FC1F7FE2B880F911D9695879597F99D
:1008600008950E948B03E8F09E37E8F09639B8F4BB
:100870009E3848F4672F782F8827985FF9CF8695A0
:100880007795679593959539D0F3B62FB1706B0F27
:10089000711D811D20F487957795679593950C942C
:0E08A00038030C9453030C94BE03F894FFCF5E
:1008AE000D0A4469676974616C20566F6C746D65CE
:1008BE007465720D0A0D0A0055425252485F566118
:0608CE006C75653A200084
:00000001FF
