:100000000C9434000C9440000C943E000C943E0080
:100010000C943E000C943E000C943E000C943E0068
:100020000C943E000C943E000C943E000C943E0058
:100030000C943E000C943E000C943E000C943E0048
:100040000C943E000C943E000C943E000C943E0038
:100050000C943E000C943E000C943E000C943E0028
:100060000C943E000C943E0011241FBECFEFD8E04C
:10007000DEBFCDBF0E9457000C9467000C940000B7
:100080001F920F920FB60F9211244A9906C0299A17
:100090000F900FBE0F901F9018952998F9CFE89AEE
:1000A000E9E6F0E0808181608083789408958FEFA5
:1000B00084B95A9A0E944F0091E0EFE4F3EC319733
:1000C000F1F700C0000085B1892785B9F6CFF89413
:0200D000FFCF60
:00000001FF
