:100000000C9434000C943E000C943E000C943E0082
:100010000C943E000C943E000C943E000C943E0068
:100020000C943E000C943E000C943E000C94510045
:100030000C943E000C943E000C943E000C943E0048
:100040000C943E000C943E000C943E000C943E0038
:100050000C943E000C943E000C943E000C943E0028
:100060000C943E000C943E0011241FBECFEFD8E04C
:10007000DEBFCDBF0E9463000C94E7000C9400002B
:10008000909389008093880078948FEC97E0019793
:10009000F1F700C0000061507109B9F7F894559A62
:1000A00008951F920F920FB60F9211248F939F9372
:1000B0008AB190E289278AB99F918F910F900FBEE4
:1000C0000F901F90189580E890E00FB6F8948093F9
:1000D0006100909361000FBE84B5826084BD84B5D9
:1000E000806184BD85B5816085BD81E087BD8091DB
:1000F000810088608093810080918100826080937C
:10010000810080916F00826080936F0068EC70E0E6
:1001100080EE93E00E9440002FEF80E792E02150B4
:1001200080409040E1F700C0000068EC70E080EE95
:1001300093E00E9440002FEF81EE94E02150804038
:100140009040E1F700C0000068EC70E080EE93E0C2
:100150000E9440002FEF81EE94E0215080409040BB
:10016000E1F700C0000068EC70E082EE94E00E94CD
:10017000400068EC70E080EE93E00E9440002FEFBA
:1001800081EE94E0215080409040E1F700C00000F3
:1001900060E971E082E493E00E9440002FEF84E385
:1001A0009CE0215080409040E1F700C0000060E9F1
:1001B00071E085E896E00E9440002FEF88E09DE323
:1001C000215080409040E1F700C000009FCFF8949C
:0201D000FFCF5F
:00000001FF
