:100000000C9434000C943E000C943E000C943E0082
:100010000C943E000C943E000C943E000C943E0068
:100020000C943E000C943E000C943E000C943E0058
:100030000C943E000C943E000C943E000C943E0048
:100040000C943E000C943E000C943E000C943E0038
:100050000C943E000C943E000C943E000C943E0028
:100060000C943E000C943E0011241FBECFEFD8E04C
:10007000DEBFCDBF0E9454000C9474000C940000AD
:1000800090917C00907F892B80937C0080917A00F6
:10009000806480937A0080917A0086FDFCCF809105
:1000A000780090917900089580917C00806480931D
:1000B0007C0080917A00836080937A0080917A003E
:1000C000806880937A008FEF84B9CFEF82E00E943E
:1000D00040008C0181E00E9440008017910710F4DD
:0C00E000C5B9F4CF15B8F2CFF894FFCFEB
:00000001FF
