:100000000C9434000C943E000C943E000C943E0082
:100010000C943E000C943E000C943E000C943E0068
:100020000C943E000C943E000C943E000C943E0058
:100030000C943E000C943E000C943E000C943E0048
:100040000C943E000C943E000C943E000C943E0038
:100050000C943E000C943E000C943E000C943E0028
:100060000C943E000C943E0011241FBECFEFD8E04C
:10007000DEBFCDBF0E9462000C9418010C940000FA
:10008000ECE7F0E0808180648083EAE7F0E0808143
:1000900086608083808180688083089590917C0051
:1000A000907F892B80937C0080917A00806480937C
:1000B0007A0080917A0086FDFCCF80917800909143
:1000C0007900089583E884B90E9440000E940001ED
:1000D000C0E17C2E04EF11E0C8E0D2E0CC24CA9449
:1000E000DD24D394B12CA12C92E8992E21E8822E04
:1000F00082E00E944E007C01C6010897A4E096951C
:100100008795AA95E1F79701281B390BC20ED31EDC
:10011000C601B4E096958795BA95E1F78E159F05CF
:1001200068F49E012E0D3F1D2897F4E0D695C795E3
:10013000FA95E1F7A9014C1B5D0BEA01E816F906F7
:1001400070F4C8018E0D9F1D08501109E4E016954A
:100150000795EA95E1F79C01201B310B8901CE013F
:10016000870D911D801B910B9601281B390B74E0A4
:10017000369527957A95E1F7E216F30650F585B89E
:1001800058ECA52EB12C85E00E944E0024E09695F7
:1001900087952A95E1F7782E8FE78E0D0E94110141
:1001A000C80134E0969587953A95E1F781580E9409
:1001B0001101CE0144E0969587954A95E1F7815863
:1001C0000E94110183EC99E00197F1F700C0000053
:1001D0008FCF8C0D9D1D64E0969587956A95E1F70C
:1001E0008E159F0510F495B8CBCF28982998A114A7
:1001F000B10421F031E0A31AB108C5CF2F98C3CFC5
:100200001092C50083E38093C400E0ECF0E08081AD
:100210008D7F808388E18093C10086E08093C20057
:1002200008959091C00095FFFCCF8093C60008957B
:04023000F894FFCF70
:00000001FF
