:100000000C9434000C9449000C9449000C94490061
:100010000C9449000C9449000C9449000C9449003C
:100020000C9449000C9449000C9449000C9449002C
:100030000C9449000C9449000C9449000C9449001C
:100040000C9449000C9449000C9449000C9449000C
:100050000C9449000C9449000C9449000C944900FC
:100060000C9449000C94490011241FBECFEFD8E036
:10007000DEBFCDBF11E0A0E0B1E0E2E6F1E002C0FA
:1000800005900D92A031B107D9F70E944B000C9456
:10009000AF000C9400008FEF84B91092C50082E08D
:1000A0008093C4008091C00082608093C00088E18A
:1000B0008093C10086E08093C20080E091E00E94BE
:1000C0007F000E947800C82F0E947100C5B98DE0A2
:1000D00091E00E947F008C2F0E9492008CE091E0C2
:1000E000EECF9091C00095FFFCCF8093C60008959D
:1000F0008091C00087FFFCCF8091C60008950F93C8
:100100001F93CF938C01C0E0F801EC0FF11D8081AB
:10011000811104C0CF911F910F9108950E94710029
:10012000CF5FF2CF0F931F93CF93DF93C7E0D0E061
:10013000082F10E0C8010C2E02C0959587950A94EF
:10014000E2F780FF0AC081E30E947100219790F7D7
:10015000DF91CF911F910F91089580E3F5CFF8942F
:02016000FFCFCF
:1001620048656C6C6F20576F726C64210D0A000039
:00000001FF
