:100000000C9434000C943E000C943E000C943E0082
:100010000C943E000C943E000C943E000C943E0068
:100020000C943E000C943E000C943E000C943E0058
:100030000C943E000C943E000C943E000C943E0048
:100040000C943E000C943E000C943E000C943E0038
:100050000C943E000C943E000C943E000C943E0028
:100060000C943E000C943E0011241FBECFEFD8E04C
:10007000DEBFCDBF0E944E000C9487000C940000A0
:1000800016BC87BD569A89EF90E00197F1F700C042
:10009000000061507109B9F75698089584B58260DF
:1000A00084BD84B5806484BD85B5836085BD68ECFE
:1000B00070E084E60E94400068EC70E08FE40E94EB
:1000C000400068EC70E083E40E94400060E971E069
:1000D00082E30E9440002FE38DE093E021508040B6
:1000E0009040E1F700C000002FE38DE093E0215045
:1000F00080409040E1F700C000002FE38DE093E0E6
:10010000215080409040E1F700C00000D0CFF8942B
:02011000FFCF1F
:00000001FF
