:100000000C9434000C9449000C9449000C94490061
:100010000C9449000C9449000C9449000C9449003C
:100020000C9449000C9449000C9449000C9449002C
:100030000C9449000C9449000C9449000C9449001C
:100040000C9449000C9449000C9449000C9449000C
:100050000C9449000C9449000C9449000C944900FC
:100060000C9449000C94490011241FBECFEFD8E036
:10007000DEBFCDBF12E0A0E0B1E0EAE4F1E002C0F3
:1000800005900D92A030B107D9F70E944B000C9457
:10009000A3000C940000CF93DF93CDB7DEB7289771
:1000A0000FB6F894DEBF0FBECDBF80E890E00FB66C
:1000B000F89480936100909361000FBE84B58160D5
:1000C00084BD84B5826084BD84B5806884BD569A41
:1000D00085B5816085BD569A209A1A8219821C8244
:1000E0001B821E821D8218861F8280E0A89BFECF85
:1000F000805887BDA89AFE01319650E040E090E01C
:1001000080E02191319124523F4F632F7727DF0107
:10011000129761157105A1F02D933C9360507F4FAC
:10012000DB012C91820F911D27FD9A95495F5F4F4E
:100130004C31510531F79595879595958795D6CF93
:0A014000240F351FE9CFF894FFCF1C
:10014A0000010304050607070707070708090A0C41
:10015A000D0F11121415151616161616161718194C
:10016A001B1D1F212223242424242424242526275A
:10017A00292B2D2F30323333333333333333343562
:10018A0036383A3D3F404242434242414141414270
:10019A004446484B4D4F5152525251504F4E4E4E7B
:1001AA00505255585C5F61636463625F5D5A585888
:1001BA00595B60656C73797D7F7D776C5D4A331A14
:1001CA0000E5CCB5A29388828082868C939A9FA4FC
:1001DA00A6A7A7A5A2A09D9C9B9C9EA0A3A7AAADEB
:1001EA00AFB1B1B1B0AFAEADADADAEB0B2B4B7B9FB
:1001FA00BBBDBEBEBEBEBDBDBCBDBDBFC0C2C5C708
:10020A00C9CACBCCCCCCCCCCCCCCCCCDCFD0D2D414
:10021A00D6D8D9DADBDBDBDBDBDBDBDCDDDEE0E21D
:10022A00E4E6E7E8E9E9E9E9E9E9EAEAEBEDEEF02B
:10023A00F2F3F5F6F7F8F8F8F8F8F8F9FAFBFCFE35
:00000001FF
