:100000000C9434000C9449000C9449000C94490061
:100010000C9449000C9449000C9449000C9449003C
:100020000C9449000C9449000C9449000C9449002C
:100030000C9449000C9449000C9449000C9449001C
:100040000C9449000C9449000C9449000C9449000C
:100050000C9449000C9449000C9449000C944900FC
:100060000C9449000C94490011241FBECFEFD8E036
:10007000DEBFCDBF11E0A0E0B1E0E4EEF1E002C0F0
:1000800005900D92AA33B107D9F70E944B000C944A
:10009000F0000C94000080918000816080938000CB
:1000A00080918100886080938100809181008260CE
:1000B000809381008091800080688093800080918F
:1000C00080008062809380008091B0008160809386
:1000D000B0008091B00082608093B0008091B10048
:1000E00082608093B1008091B00080688093B000FE
:1000F0000E949B0080E091E00E94BA00219A229A1F
:10010000239A85E191E00E94BA000E94CD002091DF
:100110008A0030918B002093B300209188003091A9
:10012000890030938B0020938A0090E0909389009F
:1001300080938800E6CF1092C5008CE08093C400C5
:10014000E0ECF0E080818260808388E18093C100F0
:1001500086E08093C20008959091C00095FFFCCF87
:100160008093C60008958091C00087FFFCCF8091E6
:10017000C60008950F931F93CF938C01C0E0F80140
:10018000EC0FF11D8081811104C0CF911F910F915F
:1001900008950E94AC00CF5FF2CF0F931F93CF93CF
:1001A000DF93C0E3D0E310E30E94B300082F0E9466
:1001B000AC000D3089F4105380ED8C0F94E6199F3C
:1001C000800D1124D0539AE0D99F800D1124DF9126
:1001D000CF911F910F9108951D2FDC2FC02FE4CFD9
:0401E000F894FFCFC1
:1001E4002D2D204C45442050574D2044656D6F20E3
:1001F4002D2D0D0A000D0A456E7465722028302DD0
:100204003235352920666F722050574D206475743D
:0A02140079206379636C653A2000DD
:00000001FF
