:100000000C9434000C9449000C9449000C94490061
:100010000C9449000C9449000C9449000C9449003C
:100020000C9449000C9449000C9449000C9449002C
:100030000C9449000C9449000C9449000C9449001C
:100040000C9449000C9449000C9449000C9449000C
:100050000C9449000C9449000C9449000C944900FC
:100060000C9449000C94490011241FBECFEFD8E036
:10007000DEBFCDBF12E0A0E0B1E0E0EFF0E002C0F3
:1000800005900D92A030B107D9F70E944B000C9457
:1000900076000C94000080E890E00FB6F89480930E
:1000A0006100909361000FBE84B5806884BD569A4C
:1000B00084B5816084BD84B5826084BD85B581606E
:1000C00085BD5A9A90E080E04A990EC0569A8059B0
:1000D0009C4FE92FFF27E050FF4F2081A89BFECFC8
:1000E000205827BDA89AF0CF5698EECFF894FFCFAE
:1000F000000306090C0F1215181B1E2225272A2D96
:10010000303336393C3E414446494B4E50535557A7
:100110005A5C5E60626466686A6B6D6E707173745F
:10012000757678797A7A7B7C7D7D7E7E7E7F7F7F17
:100130007F7F7F7F7E7E7E7D7D7C7B7A7A797876FD
:1001400075747371706E6D6B6A68666462605E5C14
:100150005A575553504E4B494644413E3C3936332D
:10016000302D2A2725221E1B1815120F0C090603F5
:1001700000FCF9F6F3F0EDEAE7E4E1DDDAD8D5D2F8
:10018000CFCCC9C6C3C1BEBBB9B6B4B1AFACAAA8C7
:10019000A5A3A19F9D9B9997959492918F8E8C8BEF
:1001A0008A89878685858483828281818180808017
:1001B0008080808081818182828384858586878911
:1001C0008A8B8C8E8F9192949597999B9D9FA1A3DA
:1001D000A5A8AAACAFB1B4B6B9BBBEC1C3C6C9CCA1
:1001E000CFD2D5D8DADDE1E4E7EAEDF0F3F6F9FCB9
:00000001FF
